:101182002F636D645F696E76616C69643B0D0A0062
:101192002F676574002F7365743A003A002F696EE9
:1011A200633A002F6465633A002F6C696768745F65
:1011B2006F6E3B002F6C696768745F6F66663B00F9
:1011C2002F6C65645F6F6E3B002F6C65645F6F66AA
:1011D200663B002F50574D3A002F434D4F443A0083
:1011E2002F6765743A73706565643D252E32662CEF
:1011F20070776D56616C3D25642C434D4F443D25FF
:1012020023583B0D0A002F7374617475733A73701F
:101212006565643D252E32662C70776D56616C3D96
:0F12220025642C434D4F443D2523583B0D0A00B6
:1014840057008B2F383035314D6574657255415294
:101494005453746172743B0D0A00602000440000D0
:1014A4000000000000000000000000000000000038
:1014B40000000000000000000000000000006020A8
:1014C40000640000000000000000000000000000B4
:1014D4000000000000000000000000000000000008
:1014E4000000430086010004C11301080144000008
:0414F40000000000F4
:03003B000200358B
:03003500C2DF32F5
:03000B000214F9E3
:1014F900C0E0C0F0C083C082C0D075D000C000C0B9
:1015090001C002C003C004C005C006C00730132CC7
:10151900120BCC8F08EF7022FE7F20FD7B017A0031
:10152900796412071F7526FF7527117528827B01BB
:101539007A00796412156012169EC213D007D0067C
:10154900D005D004D003D002D001D000D0D0D082B1
:07155900D083D0F0D0E03296
:10160C00900086E0FBA3E0FAA3E0F974019000439C
:10161C006B7008E965827003EA658370139000862D
:10162C00E0FBA3E475F0011205D0A9F0FAE48016F2
:10163C00900089E0FF900086E0FBA3E475F00112B6
:0A164C0005D0A9F0FAEF12059C2268
:03004300020FA801
:100FA800C0E0C0F0C083C082C0D075D000C000C00F
:100FB80001C002C003C007E59A30E105539AFDC29B
:100FC80012E59A20E003021087539AFE900089E503
:100FD8009BF0900086E0FBA3E0FAA3E0F97401908F
:100FE80000046B7008E965827003EA6583700B90F2
:100FF8000089E0642F600302108730130302108712
:10100800900089E0B42F0375080112160C90008631
:10101800E0FBA3E0FAA3E0F974019000446B7008C8
:10102800E965827003EA65836007900089E0B43B54
:101038004E900086E0FBA3E0FAA3E0F9740190006B
:10104800446B7008E965827003EA658390008660E6
:101058000EE0FBA3E0FAA3E0F9E412059C8010E09F
:10106800FBA3E0FAA3E0F990FFFE743B1205AE90F3
:1010780000867401F0A37400F0A37404F0D213D0B6
:1010880007D003D002D001D000D0D0D082D083D0F6
:04109800F0D0E03282
:0F177900759A1075D7E875D6FF758E14C21222B7
:080003002012FDD2128F9B2296
:06169E007B017A00796473
:1016A400150915091509A809A60308A60208A60123
:1016B400A809860308E6FA08E6F91205566019A88F
:1016C400098603080806E618860270010614F91252
:0F16D4000556FF12000380D805090509050922F4
:10173700E4F5D875D90EF5E9F5F943A22075DC4231
:0C17470075F4C075ECC875FCC8D2DE2239
:10175300538E7F5389F0758A66758CFCC28DD28C4B
:03176300D2A922E6
:10171800AD07AC06EC5403FF90008AEFF0E0C45428
:0F172800F0FF45F4FEEF44CF5EF5F4EDF5FC2243
:1016E300900000E0FCA3E0FDA3E0FEA3E0FF1202F4
:1016F300447B667A6679BE784012013E7B007A406D
:101703007951784412004D1202559000A2EEF0A3D5
:05171300EFF0021718C1
:100BCC007526FF7527117528927B017A007904121E
:100BDC001402E94A4B60127508027B017A007964B1
:100BEC001215B812169E020EA87526FF75271175E0
:100BFC0028977B017A007904121402E94A4B60476A
:100C0C007508037526FF75271175289D7B017A00E1
:100C1C007904121402E92401F9E43AFA9000A4EBE5
:100C2C00F0A3EAF0A3E9F078AA7C007D019000A47F
:100C3C00E0FBA3E0FAA3E0F91207027B017A00794A
:100C4C00AA121656020D567526FF75271175289F88
:100C5C007B017A007904121402E94A4B606875082A
:100C6C00047526FF75271175289D7B017A00790480
:100C7C00121402E92401F9E43AFA9000A4EBF0A36F
:100C8C00EAF0A3E9F078AA7C007D019000A4E0FBD7
:100C9C00A3E0FAA3E0F9120702900000E0F8A3E049
:100CAC00F9A3E0FAA3E0FBC000C001C002C0037BC3
:100CBC00017A0079AA121656D003D002D001D000C6
:100CCC0012004D020D567526FF7527117528A57B50
:100CDC00017A007904121402E94A4B60797508050F
:100CEC007526FF75271175289D7B017A00790412F2
:100CFC001402E92401F9E43AFA9000A4EBF0A3EA17
:100D0C00F0A3E9F078AA7C007D019000A4E0FBA39D
:100D1C00E0FAA3E0F9120702900000E0FCA3E0FD6A
:100D2C00A3E0FEA3E0FFC004C005C006C0077B0122
:100D3C007A0079AA121656A804A905AA06AB07D000
:100D4C0007D006D005D0041200499000001205F41B
:100D5C001216E3020EA87526FF7527117528AB7BBA
:100D6C00017A007904121402E94A4B6008750806EE
:100D7C00C2B6020EA87526FF7527117528B67B0121
:100D8C007A007904121402E94A4B6008750807D2FC
:100D9C00B6020EA87526FF7527117528C27B017A3D
:100DAC00007904121402E94A4B6008750808D292C3
:100DBC00020EA87526FF7527117528CB7B017A00CA
:100DCC007904121402E94A4B6008750809C29202B0
:100DDC000EA87526FF7527117528D57B017A007929
:100DEC0004121402E94A4B605175080A7526FF7506
:100DFC00271175289D7B017A007904121402E924CD
:100E0C0001F9E43AFA9000A7EBF0A3EAF0A3E9F0B9
:100E1C0078AA7C007D019000A7E0FBA3E0FAA3E098
:100E2C00F91207027B017A0079AA1212319000A202
:100E3C00EEF0A3EFF012171880627526FF752711DC
:100E4C007528DB7B017A007904121402E94A4B60A5
:100E5C004875080B7526FF75271175289D7B017A3F
:100E6C00007904121402E92401F9E43AFA9000A77B
:100E7C00EBF0A3EAF0A3E9F078AA7C007D019000E6
:100E8C00A7E0FBA3E0FAA3E0F91207027B017A00CA
:0E0E9C0079AA120EAB8FD98003E4F508AF08D7
:010EAA002225
:0C1797007F397E1B7D70DDFEDEFCDFFA7A
:0117A3002223
:1015B8008B238A248925AFD9900084E4F0A3EFF027
:1015C8007E007F037D0012071F7547FF7548117560
:1015D80049E2900000E0FCA3E0FDA3E0FEA3E0F5F3
:1015E8004D8E4C8D4B8C4A9000A2E0F54EA3E0F551
:1015F8004F900084E0F550A3E0F551AB23AA24A94D
:04160800250207B9F7
:100EAB00E4FDFC12055664306003020FA3900001B1
:100EBB0012056FFF64786008EF64586003020FA39C
:100ECB0090000312056FFF3395E0FEC3EF9441EEE4
:100EDB00648094804010D3EF945AEE6480948050D9
:100EEB0005EF24C9803490000312056FFF3395E0A2
:100EFB00FEC3EF9461EE648094804010D3EF947A3C
:100F0B00EE648094805005EF24A9800E90000312AC
:100F1B00056FFF3395E0FEEF24D0FFEE34FFFEEFBD
:100F2B002DFDEE3CFC90000212056FFF3395E0FEA9
:100F3B00C3EF9441EE648094804010D3EF945AEE4B
:100F4B00648094805005EF24C98034900002120510
:100F5B006FFF3395E0FEC3EF9461EE6480948040A5
:100F6B0010D3EF947AEE648094805005EF24A9801F
:100F7B000E90000212056FFF3395E0FEEF24D0FFB9
:100F8B00EE34FFFEEFC4F8540FC868FFEEC454F004
:0C0F9B0048FEEF2DFDEE3CFCAE04AF055F
:010FA7002227
:1012DF00E4F542F543F594F593759204F591F5967F
:1012EF00F595F5B2F5B1F5B4F5B3F5CAF5C9121721
:1012FF003712177912175375AF0175B88075B7800C
:10130F00E4F5B575B601D2AF1216E37B017A007919
:10131F008B1216A4121797AFD9900084E4F0A3EFA5
:10132F00F07547FF754812754908900000E0FCA35F
:10133F00E0FDA3E0FEA3E0F54D8E4C8D4B8C4A9063
:10134F0000A2E0F54EA3E0F54F900084E0F550A326
:10135F00E0F5517B017A0079441207B97B017A00DD
:07136F0079441216A480ADC1
:100046000202C1E86480F8E933E83360110460F025
:10005600ED33EC337009E8FCE9FDEAFEEBFF220420
:1000660060DED3EB9FEA9EE99DE8C2E78CF0C2F71B
:1000760095F0400CE8CCF8E9CDF9EACEFAEBCFFBE7
:1000860012028C85D0F05804700320D5B3E80470B2
:10009600075002B2D50202CB92D5EC0460F7E4CC4D
:1000A600C0E0C398F8603B94186008400DD0E0FBB0
:1000B6000202A3E4FBFAC9FC8028E830E406E4C99E
:1000C600FBE4CAFCE830E305E4C9CACBFCE8540704
:1000D6006010F8C3E913F9EA13FAEB13FBEC13FC0F
:1000E600D8F130F52FC3E49CFCEF9BFFEE9AFEEDB2
:1000F60099FDD0E0FBEF4E4D4C701222DB0302025D
:10010600C8EC2CFCEF33FFEE33FEED33FDED30E7AC
:10011600EB0202A3EF2BFFEE3AFEED39FDD0E0FB3A
:1001260050130BBB00030202CBED13FDEE13FEEFE3
:0801360013FFEC13FC0202A30D
:10013E00EC4D6011E8497017ED33EC3304600DE4BB
:10014E00FCFFFEFD22E933E8330470F80202C1120F
:10015E00028C58046009E4CC248150062850090210
:10016E0002CB2840030202C8C0E0EB4A7044B980BB
:10017E0006D0E0FB0202B7EF4E701CBD8008EBFF0D
:10018E00EAFEE9FD80EBE98DF0A4FEE5F002022720
:10019E00E9CDF9EAFEEBFFEF89F0A4FCE5F0CE899C
:1001AE00F0A42EFFE435F0CD89F0A42DFEE435F059
:1001BE008067EF4E7005BD80D780C3EF8BF0A4AC87
:1001CE00F0EE8BF0A42CFCE435F0F8EF8AF0A42CC2
:1001DE00E5F038FCE433CB8DF0A42CFCE5F03BF8D5
:1001EE00EE8AF0A42CFCE5F038F8E433CF89F0A4C5
:1001FE002CFCE5F038CF3400CE89F0A42FFFE5F0CB
:10020E003EFEE433C98DF0A42EFEE5F039CD8AF022
:10021E00A42FFFE5F03EFEE43DFD33D0E0FB50079A
:10022E000BBB000F0202CBEC2CFCEF33FFEE33FEC8
:06023E00ED33FD0202A3F6
:10024400ED33EC33600A047003BD8004ECB2E7FCC8
:010254002287
:10025500EDD2E7CD33EC3392D524814006E4FFFEA1
:10026500FDFC22FCE4CFCECDCC24E0501174FF8000
:10027500EDC3CC13CCCD13CDCE13CECF13CF04709D
:07028500F030D5DE0205E6B2
:10075D00E55B2447F8E6055B2278443010027847C4
:10076D00E475F0011206000205562009EB7F2ED22A
:10077D00098018EF540F2490D43440D4FF300D0B62
:10078D00EF24BFB41A0050032461FFE55C6002152D
:10079D005C055FE55F7002055E30100D7844E47511
:1007AD00F001120600EF02059C02000E7403D21038
:1007BD008003E4C210F55B8B448A458946E4F55C01
:1007CD00F55EF55FE55C60077F2012079880F57593
:1007DD005DFFC20AC209C20BC20CC20EC20FC2110A
:1007ED00120766FF700D3010057F001207A9AF5F6D
:1007FD00AE5E22B4255FC2D5C20D120766FF24D0AE
:10080D00B40A00501A75F00A785C30D50508B6FFA9
:10081D000106C6A426F620D5047002D20C80D92478
:10082D00CFB41A00EF5004C2E5D20D020A96D20AD7
:10083D0080C6D20980C0D20B80BCD2D580BAD20E70
:10084D0080B47F20120798200B077401B55C00401F
:10085D00F112075DFF1207980207D1D211D20F8056
:10086D009512075DFB12075DFA12075DF94A4B7091
:10087D0006798D7A0B7BFF200B2EE55C602A7E00BE
:10088D008E8275830012056F60060EEE655D70F049
:10089D00C2D5EBC0E0EAC0E0E9C0E0EE120AF6D046
:1008AD00E0F9D0E0FAD0E0FB120556FF60AAEBC0EC
:1008BD00E0EAC0E0E9C0E0120798D0E02401F9D0E9
:1008CD00E03400FAD0E0FBE55D0460DCD55DD98055
:1008DD0087D20B80A2120AD960F7E55D7001041270
:1008ED0002D6A95D600DE55D600914F55D120B8002
:1008FD00EF60F3EA30E702F404C3995077EAF42588
:10090D005D0430E701E404F55D800D120AD960C184
:10091D00EA055D255D1202D6EA785AF630E701E464
:10092D00255D04D55D04200E0114120AF6E4C0E025
:10093D00120B80785AE6601320E70714F612078031
:10094D00802204F6D0E014C0E07F00120780E55D40
:10095D006007120777155D800B300E03120777D0F5
:10096D00E00207D1D0E00480C5120AD960A0E55D90
:10097D00041202D6785AEAF6E55D200E02600104F3
:05098D002404120AF62B
:1009920074FF04C0E0120B80120780E55D200E0296
:1009A2006003120777D0E0B55DE87F4512078A78C9
:1009B2005AE67F2B30E7047F2DF404C0E01207983B
:1009C200D0E075F00A84C0F0120781D0E0120781EE
:1009D2000207D1791080027908C20FC2118008D2B1
:1009E200D5790A8004790AC2D5E55D047002F55D05
:1009F200E4FAFDFEFF12075DFC7B08200A131207D2
:100A02005DFD7B1030090A12075DFE12075DFF7B58
:100A120020EC3382D592D55013C3E43009069FFFF0
:100A2200E49EFEE4200A039DFDE49CFCE4CBF8C2B4
:100A32000AEC700CCFCECDCCE824F8F870F3801716
:100A4200C3EF33FFEE33FEED33FDEC33FCEB33FB50
:100A5200994002FB0FD8E9EB300A05F8D0E0C44810
:100A6200B20AC0E00AEC4D4E4F78207B0070C2EA19
:100A7200B55D0040BCC0E0120AF8D0F0D0E0200A18
:100A820004C4C0E0C4B20AC0F0120781D0F0D5F0AD
:100A9200EB0207D1120610086E5309D558083F4CD5
:100AA200083B4209D94F09E14409E1490854430985
:100AB200E75509184609764508E2470BAD50084349
:100AC2002D08472E086A2B084B230868200B962A0C
:100AD20008034800000862E55DB4FF03755D061275
:100AE200075DFC12075DFD12075DFE12075DFF78D0
:100AF20053020305790AA2D5200C14300E09B9104D
:100B0200020404B9080104A2D5200F0250010420F6
:100B12000B68920BB55C005034C0E07F20300C199A
:100B22007F30A20B720F720E500F120B4FC20BC20C
:100B32000FC20EC2117F30800F300E03E9C0E012E7
:100B42000798300E03D0E0F9D0E0B55CCC300E1738
:100B52007F30B9100C1207987F58300D077F7880CC
:100B620003B90803120798300B057F2D0207987FFF
:100B7200202011F87F2B200FF322920B80CF7F00D1
:100B8200B4070050052453F8E6FF22286E756C6CFA
:100B92002900D20A12075D300AF8C20A785C30D501
:100BA2000108F60208032D5043495812075D240339
:100BB200B405004001E4900BA893120789743A121D
:0A0BC2000789D20C755C040209D506
:10165600D2008B238A248925121692C0E0FF121726
:1016660066D0E040F31210AF400122ECC0E0EDC0BE
:10167600E0EEC0E0EFC0E0121692D0F0AFF0D0F08E
:10168600AEF0D0F0ADF0D0F0ACF080D9E475F0015A
:0816960078231206000205563C
:10028C00E9D2E7C933E833F892D5EDD2E7CD33ECB8
:07029C0033FC5002B2D52231
:1002A300EC30E7100FBF000C0EBE00080DBD0004BC
:1002B3000BEB6014A2D5EB13FCED92E7FD2274FF68
:1002C300FCFDFEFF22E480F8A2D574FF13FC7D80C1
:0302D300E480EFD5
:1002D600F920E72824F950037907E4F42402FB18EF
:1002E600DBFDE624FB5014E9600DE4F618E604F69F
:0F02F600B40A08E4F6D9F57401F60A22C2D5223B
:10030500ED33EC3392D5FA602AB4FF33EDC2E77BC7
:10031500FF60067A03792AE4227A03793320D5042B
:100325007A03792E224E614E002B494E46002D4907
:100335004E4600E47A08F608DAFC7B00740722E8EA
:10034500C0E0ECC0E0EDC0E0EEC0E0EFC0E0EA7573
:10035500F010A4CAABF075F04DA42BFBE435F0FC0E
:10036500EA2410FAEB34C5FBEC34D9FCEDC2E7FF07
:1003750075F056A4F42411C5F0F434C58FF0A42A01
:10038500E5F03BE43CF620E714120516D0E0FFD07B
:10039500E0FED0E0FDD0E0FC12040B8014F4041262
:1003A5000516D0E0FFD0E0FED0E0FDD0E0FC120164
:1003B5003ED0E0F8E6FAEDD2E7CD33EC332482FB0C
:1003C500E4C3CF33CFCE33CECD33CD33DBF37B0791
:1003D50075F00A846004F6081B0AE5F0F6088FF04C
:1003E500740AA4FFACF08EF0740AA42CFEACF05095
:1003F500010C8DF0740AA42CFDE435F0F608DBDE63
:0304050074072257
:10109C00C201C202C203C204F9E4F526F527FCFD25
:1010AC00FEFFE91000EA20030CB42D04D203D32276
:1010BC00B42B02D32224D0504794095041240A3037
:1010CC000415F88527F0740AA42872E74051C5F07E
:1010DC00704D85F027D322D202C0E0E4FBFA7920D0
:1010EC00784112013EECF8EDF9EEFAEFFBD0E0FCA2
:1010FC00E41204B212004D3001B41526D322240A96
:10110C00200420B4FE0720011AD201D32224EB6064
:10111C000424E0700EA2039201D204C203D322C3B2
:10112C000202C1E430040BE527300302F404A201EF
:10113C0092033002EA252620D2E5A2E7920450025F
:10114C00F404B4260050D8CCC0E0EDC0E0EEC0E012
:10115C00EFC0E0EC120516D0E0FFD0E0FED0E0FDD1
:10116C00D0E0FC20040512013E800312040B300376
:06117C0003120244C3222D
:100408000202CBEC5D046005E8590470030202C1E6
:1004180012028C580460F6EC4860F2EC7004FDFEA1
:10042800FF22C860DB2481C85009C39860025006C7
:100438000202C89850CAF582E9294B4A7005AB8276
:100448000202B775F0007C1A7880C3EF9BEE9AED34
:1004580099400DC3EF9BFFEE9AFEED99FDE842F03F
:10046800DC23ACF0D0E0FFD0E0FED0E0FDAB822092
:10047800E7101BEB60BAEC2CFCEF33FFEE33FEED1C
:1004880033FD0202A3E803F830E705C0F075F00079
:10049800EF2FFFEE33FEED33FD40B830E7C280AA00
:1004A80075F020800E75F010800575F0087D007ECF
:1004B800007F003392D530D5031205E6EC334010A7
:1004C800EF33FFEE33FEED33FDEC33FCD5F0ED22D8
:0E04D800E5F0247EA2D513CC92E7CDCEFF2214
:1004E6003F8000004120000042C80000447A00001E
:1004F600461C400047C35000497424004B189680A0
:100506004CBEBC205A0E1BCA6753C21C749DC5AE96
:10051600FB60065407601C2323120544EB54386025
:100526000912053012053F12013EECF8EDF9EEFA1C
:10053600EFCB22EB12053F80F1543803241C9004C4
:10054600E6FE93FC0EEE93FD0EEE930ECE93FF2287
:0300000002137672
:0C137600787FE4F6D8FD75815F0213BD9E
:10055600BB010689828A83E0225002E722BBFE02A3
:09056600E32289828A83E49322D6
:10056F00BB010CE58229F582E5833AF583E0225041
:10057F0006E92582F8E622BBFE06E92582F8E2228B
:0D058F00E58229F582E5833AF583E49322A5
:10059C00BB010689828A83F0225002F722BBFE013E
:0205AC00F32238
:1005AE00F8BB010DE58229F582E5833AF583E8F083
:1005BE00225006E92582C8F622BBFE05E92582C82F
:0205CE00F22217
:1005D000A3F8E0C5F025F0F0E582158270021583DE
:0605E000E0C838F0E8223B
:0E05E600C3E49FFFE49EFEE49DFDE49CFC2226
:0C05F400ECF0A3EDF0A3EEF0A3EFF0227A
:10060000FAE6FB0808E6F925F0F618E6CA3AF622FB
:10061000D083D082F8E4937012740193700DA3A379
:1006200093F8740193F5828883E47374029368608D
:06063000EFA3A3A380DF8D
:10000E00EFB40A07740D120019740A309811A899EA
:10001E00B8130CC2983098FDA899C298B811F63052
:07002E0099FDC299F599222A
:10176600EFC394094005EF940E4003BF2003D380D6
:0317760001C3228A
:101560008B238A2489258B298A2A892BAB2305255D
:10157000E525AA247002052414F912055670ED74AD
:10158000FF2525F52574FF3524F524AB260528E530
:1015900028AA277002052714F9120556FFAB230568
:1015A00025E525AA247002052414F9EF12059C7084
:0815B000DAAB29AA2AA92B22BB
:10063600E709F60870FA8046E709F20870FA803E84
:1006460088828C83E709F0A370FA807EE309F608B6
:1006560070FA8076E309F20870FA806E88828C83DD
:10066600E309F0A370FA806289828A83E0A3F60820
:1006760070FA805689828A83E0A3F20870FA804A6B
:1006860080D280FA80C680D4806580F28031801066
:1006960080A680EA809A80A880DA80E280CA8031CB
:1006A60089828A83ECFAE493A3C8C582C8CCC58341
:1006B600CCF0A3C8C582C8CCC583CC70E9800D89AF
:1006C600828A83E493A3F60870F9ECFAA9F0EDFBAD
:1006D6002289828A83ECFAE0A3C8C582C8CCC58386
:1006E600CCF0A3C8C582C8CCC583CC70EA80DD89AE
:1006F600828A83E493A3F20870F980CE88F0ED2411
:1007060002B4040050C4F582EB2402B4040050BACB
:090716002323458223900686731B
:101402008B238A248925AB26AA27A9281205566090
:1014120063AB23AA24A925120556605F8526298578
:10142200272A85282B8B2C8A2D892EAB29AA2AA91B
:101432002B120556FF6023AB2CAA2DA92E1205569E
:101442006F701704252BF52BE4352AF52A74012534
:101452002EF52EE4352DF52D80D1AB29AA2AA92B04
:101462001205567002800D74012525F525E43524F8
:10147200F524809DAB23AA24A925227B007A00793A
:02148200002246
:101231008B238A248925AB23AA24A925120556FFCD
:10124100121766500D74012525F525E43524F52482
:1012510080E4D200AB23AA24A925120556FF642BF2
:101261006004EFB42D1BAB230525E525AA247002EC
:10127100052414F9120556642D6003D38001C3922D
:1012810000E4F526F527AB23AA24A925120556FF6C
:101291001217885036AB23AA24A925120556FF330D
:1012A10095E0FEEF24D0FBEE34FFFAAE26AF277CAB
:1012B100007D0A12074BEF2BF527EE3AF526740154
:1012C1002525F525E43524F52480BB300006AE261E
:0E12D100AF278009C3E49527FFE49526FE228F
:10071F00EF4E6012EF60010EEDBB010B89828A83F1
:10072F00F0A3DFFCDEFA2289F05007F709DFFCA9FE
:0C073F00F022BBFEFCF309DFFCA9F02255
:101382000212DFE493A3F8E493A34003F68001F290
:1013920008DFF48029E493A3F85407240CC8C3336C
:1013A200C4540F4420C8834004F456800146F6DF3B
:1013B200E4800B0102040810204080901484E47E33
:1013C200019360BCA3FF543F30E509541FFEE49330
:1013D200A360010ECF54C025E060A840B8E493A3F7
:1013E200FAE493A3F8E493A3C8C582C8CAC583CA22
:1013F200F0A3C8C582C8CAC583CADFE9DEE780BEDA
:0114F80000F3
:10074B00EF8DF0A4A8F0CF8CF0A428CE8DF0A42EC2
:02075B00FE227C
:0F178800EFC394304007EF943A50028001C32220
:00000001FF
